:100000000C9434000C943E000C943E000C943E0082
:100010000C943E000C943E000C943E000C943E0068
:100020000C943E000C943E000C943E000C943E0058
:100030000C943E000C943E000C943E000C943E0048
:100040000C943E000C943E000C943E000C943E0038
:100050000C943E000C943E000C943E000C943E0028
:100060000C943E000C943E0011241FBECFEFD8E04C
:10007000DEBFCDBF0E9440000C948B000C940000AA
:100080008FE384B931E342E324E35CE264E035B911
:100090007AEA86EE96E9E1E0715080409040E040D7
:1000A000D9F7000045B9FFEF77EA81E6F1507040DB
:1000B0008040E1F700C0000025B99FEFE7EAF1E6D4
:1000C0009150E040F040E1F700C0000055B97FEFEB
:1000D00083E294EFE0E0715080409040E040D9F737
:1000E00000C0000085E090E025B9FFEF73ECE9E087
:1000F000F1507040E040E1F700C0000065B9FFEF4B
:1001000073ECE9E0F1507040E040E1F700C000001E
:0A011000019751F7BCCFF894FFCF20
:00000001FF
