:100000000C9434000C9446000C9446000C9446006A
:100010000C9446000C9446000C9446000C94460048
:100020000C9446000C9446000C9446000C94460038
:100030000C9446000C9446000C9446000C94460028
:100040000C9446000C9446000C9446000C94460018
:100050000C9446000C9446000C9446000C94460008
:100060000C9446000C94460011241FBECFEFD8E03C
:10007000DEBFCDBF21E0A0E0B1E001C01D92A13004
:10008000B207E1F70E945F000C946F000C9400002F
:100090001092C50087E68093C400E2ECF0E0808116
:1000A00086608083E1ECF0E0808180618083089548
:1000B0008091C00087FFFCCF8091C6000895259AEB
:1000C0000E944800C0E20E945800809300018133E2
:1000D00011F4C5B9F8CF8033B1F715B8F4CFF8945F
:0200E000FFCF50
:00000001FF
