:100000000C9434000C943E000C943E000C943E0082
:100010000C943E000C943E000C943E000C943E0068
:100020000C943E000C943E000C943E000C943E0058
:100030000C943E000C943E000C943E000C943E0048
:100040000C943E000C943E000C943E000C943E0038
:100050000C943E000C943E000C943E000C943E0028
:100060000C943E000C943E0011241FBECFEFD8E04C
:10007000DEBFCDBF0E9440000C946D000C940000C8
:100080008FE084B995E08AE095B92FEF37EA41E631
:10009000215030404040E1F700C0000015B82FEF7C
:1000A00037EA41E6215030404040E1F700C000000F
:1000B00085B92FEF37EA41E6215030404040E1F763
:1000C00000C0000015B82FEF37EA41E6215030405C
:0E00D0004040E1F700C00000D7CFF894FFCF0A
:00000001FF
