:100000000C9434000C9446000C9446000C9446006A
:100010000C9446000C9446000C9446000C94460048
:100020000C9446000C9446000C9446000C94460038
:100030000C9446000C9446000C9446000C94460028
:100040000C9446000C9446000C9446000C94460018
:100050000C9446000C9446000C9446000C94460008
:100060000C9446000C94460011241FBECFEFD8E03C
:10007000DEBFCDBF21E0A0E0B1E001C01D92A13004
:10008000B207E1F70E945F000C947F000C9400001F
:100090001092C50087E68093C400E2ECF0E0808116
:1000A00086608083E1ECF0E0808180618083089548
:1000B0008091C00087FFFCCF8091C60008958FE03B
:1000C00084B90E944800C1E0D4E01AE005E00E9433
:1000D000580080930001803311F415B8F8CF8133B4
:1000E00011F405B9F4CF823311F415B9F0CF83338D
:1000F00011F4D5B9ECCF843351F7C5B9E8CFF894F2
:02010000FFCF2F
:00000001FF
