:100000000C9434000C9446000C9446000C9446006A
:100010000C9446000C9446000C9446000C94460048
:100020000C9446000C9446000C9446000C94460038
:100030000C9446000C9446000C9446000C94460028
:100040000C9446000C9446000C9478000C94B1007B
:100050000C9446000C9446000C9446000C94460008
:100060000C9446000C94460011241FBECFEFD8E03C
:10007000DEBFCDBF21E0A0E0B1E001C01D92A531FF
:10008000B207E1F70E94E7000C94F7000C9400001F
:10009000FC01148A0895FC019489943140F4DF0135
:1000A000A90FB11D6C939F5F948B80E0089581E050
:1000B0000895FC012489222349F02150248BE20F6A
:1000C000F11D8081FB01808380E0089581E0089527
:1000D0001092C50087E68093C400E2ECF0E08081D6
:1000E00086608083E1ECF0E0808180698083089500
:1000F0001F920F920FB60F9211242F933F934F939D
:100100005F936F937F938F939F93AF93BF93CF939F
:10011000EF93FF93C091C6006C2F80E091E00E94A6
:100120004B00813011F0CE3251F48091C1008F76B6
:100130008093C1008091C10088628093C100FF91CB
:10014000EF91CF91BF91AF919F918F917F916F91DF
:100150005F914F913F912F910F900FBE0F901F9085
:1001600018951F920F920FB60F9211242F933F9361
:100170004F935F936F937F938F939F93AF93BF93AF
:10018000EF93FF9366EC70E080E091E00E945900ED
:10019000813061F4109214018091C100877D8093B9
:1001A000C1008091C10080698093C100FF91EF91EF
:1001B000BF91AF919F918F917F916F915F914F917F
:1001C0003F912F910F900FBE0F901F901895109296
:1001D000140183B7817F83BF0E946800789483B73E
:1001E000816083BF889583B78E7F83BFF8CFF894F3
:0201F000FFCF3F
:00000001FF
